:020000023000CC
:10E000000D9472F00D949BF00D949BF00D949BF089
:10E010000D949BF00D949BF00D949BF00D949BF050
:10E020000D949BF00D949BF00D949BF00D949BF040
:10E030000D949BF00D949BF00D949BF00D949BF030
:10E040000D949BF00D949BF00D949BF00D949BF020
:10E050000D949BF00D949BF00D949BF00D949BF010
:10E060000D949BF00D949BF00D949BF00D949BF000
:10E070000D949BF00D949BF00D949BF00D949BF0F0
:10E080000D949BF00D949BF00D949BF00D949BF0E0
:10E090000D949BF00D949BF00D949BF00D949BF0D0
:10E0A0000D949BF00D949BF00D949BF00D949BF0C0
:10E0B0000D949BF00D949BF00D949BF00D949BF0B0
:10E0C0000D949BF00D949BF00D949BF00D949BF0A0
:10E0D0000D949BF00D949BF00D949BF00D949BF090
:10E0E0000D949BF011241FBECFEFD1E2DEBFCDBF58
:10E0F00001E00CBF12E0A0E0B2E0EAEFFFEE03E0C7
:10E100000BBF02C007900D92A237B107D9F722E0EA
:10E11000A2E7B2E001C01D92A238B207E1F70F9466
:10E120000CF20D94FBF701E20EBF0FEE0DBF1124B0
:10E130001FBE0D940CF20D9400F0209180023091DE
:10E1400081022115310561F48093C6008091C000E1
:10E1500086FFFCCF8091C00080648093C00008954A
:10E160002230310559F48093D6008091D00086FF8B
:10E17000FCCF8091D00080648093D000089520E08F
:10E1800030E02817390749F0EFECF7E03197F1F765
:10E1900000C000002F5F3F4FF4CF0895E0ECF0E0A7
:10E1A00080818260808320E12093C40098E1909375
:10E1B000C100E0EDF0E08081826080832093D40094
:10E1C0009093D1000895019719F480E885B90895D6
:10E1D00015B8089581B1806F81B982B1806F82B91D
:10E1E0006D9A75989D9AA598E1E0F1E08081808311
:10E1F000E2E0F1E08081808308958F9808958F9AFE
:10E200000895CF93DF93C82FD62F662311F05D9A20
:10E2100001C05D98C7FF02C0A39A01C0A398809176
:10E220000201C6FF02C0806801C08F77809302019F
:10E23000C5FF02C0A49A01C0A498C4FF02C08D9A71
:10E2400001C08D9800C00F94FFF082E08A95F1F72D
:10E2500000C00F94FDF0C3FF02C0A39A01C0A398B1
:10E2600080910201C2FF02C0806801C08F77809355
:10E270000201C1FF02C0A49A01C0A498C0FF02C05D
:10E280008D9A01C08D9800C00F94FFF092E09A958E
:10E29000F1F700C00F94FDF0A39A8091020180680D
:10E2A00080930201A49A8D9AD11108C0C43030F431
:10E2B0008FE999E10197F1F700C003C095ED9A95B8
:10E2C000F1F70000DF91CF91089560E00D9401F126
:10E2D00080580D9465F181E00D9465F182E00D9414
:10E2E00065F161E00D9401F1CF93DF93EC01899129
:10E2F000882319F00F9471F1FACFDF91CF9108952F
:10E30000CF93DF93FC018491EF012196882321F0C4
:10E310000F9471F1FE01F7CFDF91CF910895879AA5
:10E32000559A9B9AE1E0F1E08081806880839C9A15
:10E33000859A0F94FDF05D98A39AE2E0F1E0808168
:10E3400080688083A49A8D9A8FE59AEE0197F1F701
:10E3500000C00000A39880818F77808300C00F9455
:10E36000FFF092E09A95F1F700C00F94FDF08FE076
:10E3700090E40197F1F700C000000F94FFF092E0E5
:10E380009A95F1F700C00F94FDF08FE891E00197A6
:10E39000F1F700C000000F94FFF092E09A95F1F7BA
:10E3A00000C00F94FDF085ED8A95F1F700008D987F
:10E3B00000C00F94FFF092E09A95F1F700C00F941F
:10E3C000FDF085ED8A95F1F700008D9800C00F945F
:10E3D000FFF092E09A95F1F700C00F94FDF082E013
:10E3E0008A95F1F700C0A39A00C00F94FFF092E065
:10E3F0009A95F1F700C00F94FDF085ED8A95F1F73D
:10E40000000088E00F9465F10F946BF186E00F94A3
:10E4100065F18CE00D9465F1CF93DF93CDB7DEB756
:10E42000CC52D1400FB6F894DEBF0FBECDBF94B72B
:10E43000F894A89514BE8091600088618093600074
:10E4400010926000789493FFA6C08091FC1F909179
:10E45000FD1FA091FE1FB091FF1F8A3A9545AA4A61
:10E46000B54509F030C58091F41F9091F51FA0913A
:10E47000F61FB091F71F6C017D0173E0372E51E05C
:10E4800015E001E12091F81F3091F91F21153105A8
:10E4900009F419C54091FB1F40FF09C0F601E09245
:10E4A0005B0030925700E89507B600FCFDCF4601AF
:10E4B00057016FEF961AA60AB60A41FF58C044707A
:10E4C0002091F81F3091F91F2115310509F442C040
:10E4D00088159905AA05BB0508F03CC04090F01FBF
:10E4E0005090F11F6090F21F7090F31F442329F0A9
:10E4F0006BBEF2016791769106C0E091F01FF0913A
:10E50000F11F608171810B01FC01A0935B005093AE
:10E510005700E89511240296A11DB11D72E0470E27
:10E52000511C611C711C4092F01F5092F11F6092AF
:10E53000F21F7092F31F2330310538F02250310959
:10E540003093F91F2093F81FBBCF1092F91F109240
:10E55000F81FB6CFF601E0925B0010935700E895E4
:10E5600007B600FCFDCF00935700E89511C09F5FF0
:10E57000AF4FBF4F2130E1E03E0730F03A95309386
:10E58000F91F2093F81F04C01092F91F1092F81F72
:10E590007501640177CF1092810210928002279A50
:10E5A0002F9A8091C00082608093C00080E18093A8
:10E5B000C40088E18093C10000000F94EAF080E875
:10E5C00085B90F94CEF00F948FF10F946BF180E02A
:10E5D0000F9468F181E40F9468F183E092E00F9466
:10E5E00074F187E10F9468F185E192E00F9474F182
:10E5F0008EE50F9468F184E292E00F9474F115B8FF
:10E6000000E010E0C12CD12C760167EC862E6BE186
:10E61000962EA12CB12C8091C00087FD2AC080913C
:10E62000D00087FD26C00115110519F5F5E0FA9512
:10E63000F1F700000FEFC01AD00AE00AF00A91E0EB
:10E6400080E011E2C1161EE4D106E104F10408F4F1
:10E6500090E0092F182FC701B601A50194010F946E
:10E6600096F7672B682B692BB1F685B1805885B971
:10E67000D2CF8091D00087FF06C082E090E09093D7
:10E68000810280938002012B09F017C4A0E0B0E062
:10E69000212C312CC95DDE4F19821882C752D1401E
:10E6A00041E050E0CC5DDE4F1882C452D140D12C05
:10E6B000CE5DDE4F19821882C252D140812C912C3E
:10E6C0005401412C512C320160916D0270916E0207
:10E6D00080916F0290917002C75DDE4F68837983ED
:10E6E0008A839B83C952D14020918002309181025C
:10E6F00080E090E060E04130510509F4F2C3EE247F
:10E70000E39412E1F12E0AE710E02115310529F416
:10E710004091C00047FF08C0E4C32230310521F416
:10E720004091D00047FD11C041E0E41AF108010911
:10E73000110959F70BBFF701E790F690EF20E0942D
:10E74000F1F2EE27FF270994DACF7091D6006330FB
:10E7500009F120F4613079F040F015C0653051F1D5
:10E76000E8F0663009F447C049C07B3109F4BCC306
:10E7700040E050E0C0CFD726CC5DDE4F7883C45256
:10E78000D14062E0F5CF872F90E0982F8827D726D9
:10E7900063E0EECF872BD72664E0EACF7E3009F026
:10E7A000A7C3D726CE5DDE4F19821882C252D14050
:10E7B00065E0DECFCE5DDE4F48815981C252D14047
:10E7C0004F5F5F4FE1E0F0E0EC0FFD1FCE5DDE4FED
:10E7D00008811981C252D140E00FF11F7083D72602
:10E7E0008417950709F486C3CE5DDE4F59834883AD
:10E7F000C252D140BDCF7D117BC303C0673009F049
:10E80000B7CFAB2B81F40F946BF184E10F9468F1D7
:10E810008FE292E00F9474F18DE20F9468F183E43B
:10E8200092E00F9474F180917C0290917D02A0910E
:10E830007E02B0917F02892B8A2B8B2BA9F5C95DB3
:10E84000DE4F08811981C752D1400F5F1F4FC95D4C
:10E85000DE4F19830883C752D1400B30110520F1D8
:10E860001FEF211A310A26E02216310410F0212C64
:10E87000312C8BE50F9468F187E592E00F9474F1E9
:10E8800034E02316310418F48CE5820D02C082E6D0
:10E8900082190F9468F18AE20F9471F1C95DDE4F1D
:10E8A00019821882C752D14080917C0290917D02DA
:10E8B000A0917E02B0917F02892B8A2B8B2B09F4C9
:10E8C00063C08091720290917302009709F45CC05A
:10E8D000019739F488E50F9468F18EE592E00F9482
:10E8E00074F18091720290917302029739F487E576
:10E8F0000F9468F185E692E00F9474F1209178020C
:10E900003091790240917A0250917B02A4E6B0E006
:10E910000F94BFF720917C0230917D0240917E02DE
:10E9200050917F020F9496F7C901C75DDE4F488171
:10E9300059816A817B81C952D140C25EDE4F4883D2
:10E9400059836A837B83CE51D140FE01E25EFE4F44
:10E950008F010350110930E21816190644F46AE0D9
:10E9600070E00F9482F7805D8283CB0101C0328317
:10E970003197E017F10781F7CE01825E9E4F0F9429
:10E9800074F185E20F9471F12981243109F4B9C140
:10E9900090F5263009F4D8C000F5223009F44EC0B5
:10E9A000233009F478C0213009F033C21A8288E09C
:10E9B0008B8381E48C8386E58D8382E58E8389E475
:10E9C0008F8383E5888780E589878FE58A8782E35F
:10E9D0008B87C12C0BE010E021C2213109F468C003
:10E9E00018F4203159F115C2223109F4A4C02331A1
:10E9F00009F4B7C00EC2293109F48BC048F426319E
:10EA000009F47FC108F4ADC0283109F46DC001C21A
:10EA10002B3109F451C008F45AC02D3189F0213747
:10EA200009F0F7C18A8180937C028B8180937D02FB
:10EA30008C8180937E0210927F0261C1C12C3AC00A
:10EA40009D81903339F48F818823B1F08130B1F406
:10EA500088E917C0892F807599F0903521F489E0F5
:10EA6000E0E0F0E005C0983559F4E3E0F0E089E03B
:10EA700080935700849105C08EE103C081E001C0FE
:10EA800080E01A821B829C831D828E831F82C12C90
:10EA900007E010E0C3C1EA81E059E33028F4F0E078
:10EAA000E050FE4F808101C080E01A828B833FC01E
:10EAB000CC24C3941A82B0C18D81882321F0813087
:10EAC00021F488E924C08EE122C081E020C01A82AE
:10EAD000E1E0F0E089E08093570084918B831C8211
:10EAE000C12C04E010E09AC18B81803551F48C81F7
:10EAF000883019F4E2E0F0E006C089E0E0E0F0E000
:10EB000003C0E3E0F0E089E08093570084911A822B
:10EB1000E5CF8D81836C99E0E1E0F0E0082E9093E1
:10EB20005700E89507B600FCFDCF1A821B82C12C66
:10EB300003E010E073C180EC8A83C12C02E010E096
:10EB4000812C912C54016AC16A817B818C819D81C9
:10EB50000F94B8F72B013C01440C551C661C771C24
:10EB6000CEC0EA80FB80FE24EF24FE24233109F08E
:10EB700092C080917C0290917D02A0917E02B09122
:10EB80007F02892B8A2B8B2B09F440C0411451043E
:10EB90006104710491F4C701A0E0B0E080937802B1
:10EBA00090937902A0937A02B0937B0281E090E087
:10EBB000909373028093720221C0809174029091AD
:10EBC0007502A0917602B091770284159505A6058D
:10EBD000B705A1F08091780290917902A0917A0214
:10EBE000B0917B028E0D9F1DA11DB11D80937802F7
:10EBF00090937902A0937A02B0937B0240927402C0
:10EC00005092750260927602709277028114F0EE53
:10EC10009F06F3E0AF06B10470F483E0F401A09224
:10EC20005B0080935700E89507B600FCFDCF0FEF1F
:10EC3000901AA00AB00A411410EE510613E06106C2
:10EC4000710408F05CC0B301A201DE011B9621E053
:10EC50008D919D910C01FA0160935B002093570008
:10EC6000E89511244E5F5F4F6F4F7F4F32E0E31AFC
:10EC7000F10871F785E0F20160925B008093570024
:10EC8000E89507B600FCFDCF81E180935700E89539
:10EC90002A013B0134C0D301C201B695A7959795CF
:10ECA00087956C018E01055F1F4FCB5DDE4F198389
:10ECB0000883C552D14000E010E00E151F05A9F0F1
:10ECC000CB5DDE4FE881F981C552D1406191CB5DCA
:10ECD000DE4FF983E883C552D140C8018C0D9D1DDC
:10ECE0000F94EDF70F5F1F4FE8CF20E030E0000FEB
:10ECF000111F221F331F400E511E621E731E1A82E7
:10ED00008AC08A819B819827892798278C010D5F6B
:10ED10001F4F1A82243109F04EC040917C0250915D
:10ED20007D0260917E0270917F02452B462B472B1E
:10ED300051F1AC0160E070E04114510461047104D0
:10ED400071F420917202309173022130310539F44F
:10ED500022E030E030937302209372020CC0C09026
:10ED60007802D0907902E0907A02F0907B024C0D0C
:10ED70005D1D6E1D7F1D4093780250937902609354
:10ED80007A0270937B02DE0111966BBEF20127912D
:10ED9000369112962C931297FD01349613963C935C
:10EDA000139722E0420E511C611C711C02971296AF
:10EDB000009759F72BC0FE0131969F01280F391F8C
:10EDC000B301A20141BDC52ED62EE72EFF24C2BC41
:10EDD0004F5F5F4F6F4F7F4FF89AA0B5A283319678
:10EDE0002E173F0779F7AC014150510960E070E000
:10EDF0004F5F5F4F6F4F7F4F440E551E661E771E4D
:10EE0000E3E0F0E0EC0FFD1FE80FF91F1082C12CCA
:10EE100005C080EC8A83C12C02E010E08BE10F94E6
:10EE20009DF0CC5DDE4F8881C452D1400F949DF09F
:10EE3000812F0F949DF0802F0F949DF085E1CC5D84
:10EE4000DE4FD880C452D140D826D0268EE00F9411
:10EE50009DF0D126AE014F5F5F4F7A01040F151F61
:10EE60000E151F0591F0F70121917F01CB5DDE4F5B
:10EE70002883C552D140822F0F949DF0CB5DDE4F89
:10EE80003881C552D140D326EBCF8D2D0F949DF004
:10EE9000CC5DDE4F0881C452D1400F5FCC5DDE4FA8
:10EEA0000883C452D14085B1805885B9A1E0B0E053
:10EEB000C11003C040E050E017CC27982F9884E69B
:10EEC00090E00F94BFF000008091C0008D7F809390
:10EED000C00081E180935700E895EE27FF27099451
:10EEE000FFCF7091C60033CC4BE1D42E61E040CC13
:10EEF00060E03ECCCE5DDE4F99838883C252D14024
:10EF000066E036CC97FB072E16F4009407D077FD09
:10EF100009D00F94CAF707FC05D03EF4909581956F
:10EF20009F4F0895709561957F4F0895A1E21A2E25
:10EF3000AA1BBB1BFD010DC0AA1FBB1FEE1FFF1F9D
:10EF4000A217B307E407F50720F0A21BB30BE40BED
:10EF5000F50B661F771F881F991F1A9469F7609534
:10EF60007095809590959B01AC01BD01CF010895EE
:10EF700069279627692778278727782708950F9488
:10EF8000DEF7A59F900DB49F900DA49F800D911D5D
:10EF900011240895AA1BBB1B51E107C0AA1FBB1F68
:10EFA000A617B70710F0A61BB70B881F991F5A9515
:10EFB000A9F780959095BC01CD010895A29FB0015D
:10EFC000B39FC001A39F700D811D1124911DB29F9D
:10EFD000700D811D1124911D0895262FF999FECFE2
:10EFE0001FBA92BD81BD20BD0FB6F894FA9AF99A66
:0AEFF0000FBE01960895F894FFCFBC
:10EFFA000F020A4F726967696E616C2050727573ED
:10F00A0061206933005072757361205265736561BE
:10F01A00726368004C6F6164696E672E2E2E002041
:10F02A00446F206E6F7420646973636F6E6E6563DC
:10F03A0074210020557067726164696E6720666981
:10F04A00726D77617265007C202020207C007772C7
:10F05A00697465200076657269667920002020202F
:02F06A000000A4
:040000033000E000E9
:00000001FF
